{
    "contractName": "RumAccount",
    "abi": [
        {
            "inputs": [],
            "stateMutability": "nonpayable",
            "type": "constructor"
        },
        {
            "anonymous": false,
            "inputs": [
                {
                    "indexed": false,
                    "internalType": "address",
                    "name": "user",
                    "type": "address"
                },
                {
                    "indexed": true,
                    "internalType": "string",
                    "name": "payment_provider",
                    "type": "string"
                },
                {
                    "indexed": false,
                    "internalType": "string",
                    "name": "payment_account",
                    "type": "string"
                },
                {
                    "indexed": false,
                    "internalType": "string",
                    "name": "meta",
                    "type": "string"
                },
                {
                    "indexed": false,
                    "internalType": "string",
                    "name": "memo",
                    "type": "string"
                }
            ],
            "name": "Bind",
            "type": "event"
        },
        {
            "anonymous": false,
            "inputs": [
                {
                    "indexed": false,
                    "internalType": "address",
                    "name": "user",
                    "type": "address"
                },
                {
                    "indexed": true,
                    "internalType": "string",
                    "name": "payment_provider",
                    "type": "string"
                }
            ],
            "name": "UnBind",
            "type": "event"
        },
        {
            "inputs": [
                {
                    "internalType": "address",
                    "name": "",
                    "type": "address"
                },
                {
                    "internalType": "string",
                    "name": "",
                    "type": "string"
                }
            ],
            "name": "account",
            "outputs": [
                {
                    "internalType": "address",
                    "name": "user",
                    "type": "address"
                },
                {
                    "internalType": "string",
                    "name": "payment_provider",
                    "type": "string"
                },
                {
                    "internalType": "string",
                    "name": "payment_account",
                    "type": "string"
                },
                {
                    "internalType": "string",
                    "name": "meta",
                    "type": "string"
                },
                {
                    "internalType": "string",
                    "name": "memo",
                    "type": "string"
                }
            ],
            "stateMutability": "view",
            "type": "function",
            "constant": true
        },
        {
            "inputs": [
                {
                    "internalType": "address",
                    "name": "",
                    "type": "address"
                }
            ],
            "name": "managers",
            "outputs": [
                {
                    "internalType": "bool",
                    "name": "",
                    "type": "bool"
                }
            ],
            "stateMutability": "view",
            "type": "function",
            "constant": true
        },
        {
            "inputs": [],
            "name": "owner",
            "outputs": [
                {
                    "internalType": "address",
                    "name": "",
                    "type": "address"
                }
            ],
            "stateMutability": "view",
            "type": "function",
            "constant": true
        },
        {
            "inputs": [
                {
                    "internalType": "string",
                    "name": "",
                    "type": "string"
                },
                {
                    "internalType": "string",
                    "name": "",
                    "type": "string"
                }
            ],
            "name": "userAddress",
            "outputs": [
                {
                    "internalType": "address",
                    "name": "",
                    "type": "address"
                }
            ],
            "stateMutability": "view",
            "type": "function",
            "constant": true
        },
        {
            "inputs": [
                {
                    "internalType": "address",
                    "name": "newOwner",
                    "type": "address"
                }
            ],
            "name": "changeOwner",
            "outputs": [],
            "stateMutability": "nonpayable",
            "type": "function"
        },
        {
            "inputs": [
                {
                    "internalType": "address",
                    "name": "manager",
                    "type": "address"
                }
            ],
            "name": "addManager",
            "outputs": [],
            "stateMutability": "nonpayable",
            "type": "function"
        },
        {
            "inputs": [
                {
                    "internalType": "address",
                    "name": "manager",
                    "type": "address"
                }
            ],
            "name": "removeManager",
            "outputs": [],
            "stateMutability": "nonpayable",
            "type": "function"
        },
        {
            "inputs": [
                {
                    "internalType": "address",
                    "name": "user",
                    "type": "address"
                },
                {
                    "internalType": "string",
                    "name": "payment_provider",
                    "type": "string"
                },
                {
                    "internalType": "string",
                    "name": "payment_account",
                    "type": "string"
                },
                {
                    "internalType": "string",
                    "name": "meta",
                    "type": "string"
                },
                {
                    "internalType": "string",
                    "name": "memo",
                    "type": "string"
                }
            ],
            "name": "bind",
            "outputs": [],
            "stateMutability": "nonpayable",
            "type": "function"
        },
        {
            "inputs": [
                {
                    "internalType": "string",
                    "name": "payment_provider",
                    "type": "string"
                },
                {
                    "internalType": "string",
                    "name": "payment_account",
                    "type": "string"
                },
                {
                    "internalType": "string",
                    "name": "meta",
                    "type": "string"
                },
                {
                    "internalType": "string",
                    "name": "memo",
                    "type": "string"
                }
            ],
            "name": "selfBind",
            "outputs": [],
            "stateMutability": "nonpayable",
            "type": "function"
        },
        {
            "inputs": [
                {
                    "internalType": "address",
                    "name": "user",
                    "type": "address"
                },
                {
                    "internalType": "string",
                    "name": "payment_provider",
                    "type": "string"
                }
            ],
            "name": "unBind",
            "outputs": [],
            "stateMutability": "nonpayable",
            "type": "function"
        },
        {
            "inputs": [
                {
                    "internalType": "string",
                    "name": "payment_provider",
                    "type": "string"
                }
            ],
            "name": "selfUnBind",
            "outputs": [],
            "stateMutability": "nonpayable",
            "type": "function"
        },
        {
            "inputs": [
                {
                    "internalType": "address",
                    "name": "user",
                    "type": "address"
                }
            ],
            "name": "accounts",
            "outputs": [
                {
                    "components": [
                        {
                            "internalType": "address",
                            "name": "user",
                            "type": "address"
                        },
                        {
                            "internalType": "string",
                            "name": "payment_provider",
                            "type": "string"
                        },
                        {
                            "internalType": "string",
                            "name": "payment_account",
                            "type": "string"
                        },
                        {
                            "internalType": "string",
                            "name": "meta",
                            "type": "string"
                        },
                        {
                            "internalType": "string",
                            "name": "memo",
                            "type": "string"
                        }
                    ],
                    "internalType": "struct RumAccount.Account[]",
                    "name": "",
                    "type": "tuple[]"
                }
            ],
            "stateMutability": "view",
            "type": "function",
            "constant": true
        },
        {
            "inputs": [
                {
                    "internalType": "string",
                    "name": "payment_provider",
                    "type": "string"
                }
            ],
            "name": "providerUsersCount",
            "outputs": [
                {
                    "internalType": "uint256",
                    "name": "",
                    "type": "uint256"
                }
            ],
            "stateMutability": "view",
            "type": "function",
            "constant": true
        }
    ],
    "bytecode": "0x608060405234801561001057600080fd5b50326000806101000a81548173ffffffffffffffffffffffffffffffffffffffff021916908373ffffffffffffffffffffffffffffffffffffffff16021790555060018060003273ffffffffffffffffffffffffffffffffffffffff1673ffffffffffffffffffffffffffffffffffffffff16815260200190815260200160002060006101000a81548160ff0219169083151502179055506139a7806100b76000396000f3fe608060405234801561001057600080fd5b50600436106100cf5760003560e01c8063640c8a1c1161008c578063a6f9dae111610066578063a6f9dae11461020e578063ac18de431461022a578063f3e0b7b514610246578063fdff9b4d1461027a576100cf565b8063640c8a1c146101b85780638da5cb5b146101d4578063969ef039146101f2576100cf565b806302d0984b146100d45780632006ea73146100f05780632d06177a146101205780633a2616771461013c57806357635a2b146101585780635e5c06e214610188575b600080fd5b6100ee60048036038101906100e99190612dba565b6102aa565b005b61010a60048036038101906101059190612e91565b6107a0565b6040516101179190612f4a565b60405180910390f35b61013a60048036038101906101359190612f91565b61080e565b005b61015660048036038101906101519190612fbe565b6108f6565b005b610172600480360381019061016d9190612fbe565b61119a565b60405161017f9190613020565b60405180910390f35b6101a2600480360381019061019d9190612f91565b6111c8565b6040516101af919061321f565b60405180910390f35b6101d260048036038101906101cd9190613241565b611653565b005b6101dc611f80565b6040516101e99190612f4a565b60405180910390f35b61020c6004803603810190610207919061329d565b611fa4565b005b61022860048036038101906102239190612f91565b612527565b005b610244600480360381019061023f9190612f91565b612684565b005b610260600480360381019061025b9190613241565b6127f2565b6040516102719594939291906133d2565b60405180910390f35b610294600480360381019061028f9190612f91565b612a8b565b6040516102a1919061345c565b60405180910390f35b6040518060a001604052803273ffffffffffffffffffffffffffffffffffffffff16815260200185815260200184815260200183815260200182815250600260003273ffffffffffffffffffffffffffffffffffffffff1673ffffffffffffffffffffffffffffffffffffffff1681526020019081526020016000208560405161033491906134b3565b908152602001604051809103902060008201518160000160006101000a81548173ffffffffffffffffffffffffffffffffffffffff021916908373ffffffffffffffffffffffffffffffffffffffff16021790555060208201518160010190805190602001906103a5929190612aab565b5060408201518160020190805190602001906103c2929190612aab565b5060608201518160030190805190602001906103df929190612aab565b5060808201518160040190805190602001906103fc929190612aab565b50905050600360003273ffffffffffffffffffffffffffffffffffffffff1673ffffffffffffffffffffffffffffffffffffffff1681526020019081526020016000206001018460405161045091906134b3565b908152602001604051809103902060009054906101000a900460ff1661056457600360003273ffffffffffffffffffffffffffffffffffffffff1673ffffffffffffffffffffffffffffffffffffffff168152602001908152602001600020600001849080600181540180825580915050600190039060005260206000200160009091909190915090805190602001906104eb929190612aab565b506001600360003273ffffffffffffffffffffffffffffffffffffffff1673ffffffffffffffffffffffffffffffffffffffff1681526020019081526020016000206001018560405161053e91906134b3565b908152602001604051809103902060006101000a81548160ff0219169083151502179055505b60058460405161057491906134b3565b908152602001604051809103902060010160003273ffffffffffffffffffffffffffffffffffffffff1673ffffffffffffffffffffffffffffffffffffffff16815260200190815260200160002060009054906101000a900460ff166106ce576005846040516105e491906134b3565b9081526020016040518091039020600001329080600181540180825580915050600190039060005260206000200160009091909190916101000a81548173ffffffffffffffffffffffffffffffffffffffff021916908373ffffffffffffffffffffffffffffffffffffffff160217905550600160058560405161066891906134b3565b908152602001604051809103902060010160003273ffffffffffffffffffffffffffffffffffffffff1673ffffffffffffffffffffffffffffffffffffffff16815260200190815260200160002060006101000a81548160ff0219169083151502179055505b326004856040516106df91906134b3565b9081526020016040518091039020846040516106fb91906134b3565b908152602001604051809103902060006101000a81548173ffffffffffffffffffffffffffffffffffffffff021916908373ffffffffffffffffffffffffffffffffffffffff1602179055508360405161075591906134b3565b60405180910390207fb5a2f408b7892d24a32d714ac04f2bfddf80c2af2558c43a176a39e2a8b76e023285858560405161079294939291906134ca565b60405180910390a250505050565b600482805160208101820180518482526020830160208501208183528095505050505050818051602081018201805184825260208301602085012081835280955050505050506000915091509054906101000a900473ffffffffffffffffffffffffffffffffffffffff1681565b60008054906101000a900473ffffffffffffffffffffffffffffffffffffffff1673ffffffffffffffffffffffffffffffffffffffff163273ffffffffffffffffffffffffffffffffffffffff161461089c576040517f08c379a000000000000000000000000000000000000000000000000000000000815260040161089390613570565b60405180910390fd5b60018060008373ffffffffffffffffffffffffffffffffffffffff1673ffffffffffffffffffffffffffffffffffffffff16815260200190815260200160002060006101000a81548160ff02191690831515021790555050565b60048160405161090691906134b3565b9081526020016040518091039020600260003273ffffffffffffffffffffffffffffffffffffffff1673ffffffffffffffffffffffffffffffffffffffff1681526020019081526020016000208260405161096191906134b3565b908152602001604051809103902060020160405161097f9190613684565b908152602001604051809103902060006101000a81549073ffffffffffffffffffffffffffffffffffffffff0219169055600260003273ffffffffffffffffffffffffffffffffffffffff1673ffffffffffffffffffffffffffffffffffffffff168152602001908152602001600020816040516109fd91906134b3565b9081526020016040518091039020600080820160006101000a81549073ffffffffffffffffffffffffffffffffffffffff0219169055600182016000610a439190612b31565b600282016000610a539190612b31565b600382016000610a639190612b31565b600482016000610a739190612b31565b5050600360003273ffffffffffffffffffffffffffffffffffffffff1673ffffffffffffffffffffffffffffffffffffffff16815260200190815260200160002060010181604051610ac591906134b3565b908152602001604051809103902060009054906101000a900460ff1615610e035760005b600360003273ffffffffffffffffffffffffffffffffffffffff1673ffffffffffffffffffffffffffffffffffffffff16815260200190815260200160002060000180549050811015610d935781604051602001610b4791906134b3565b60405160208183030381529060405280519060200120600360003273ffffffffffffffffffffffffffffffffffffffff1673ffffffffffffffffffffffffffffffffffffffff1681526020019081526020016000206000018281548110610bb157610bb061369b565b5b90600052602060002001604051602001610bcb9190613684565b6040516020818303038152906040528051906020012003610d8057600360003273ffffffffffffffffffffffffffffffffffffffff1673ffffffffffffffffffffffffffffffffffffffff1681526020019081526020016000206000016001600360003273ffffffffffffffffffffffffffffffffffffffff1673ffffffffffffffffffffffffffffffffffffffff16815260200190815260200160002060000180549050610c7a91906136f9565b81548110610c8b57610c8a61369b565b5b90600052602060002001600360003273ffffffffffffffffffffffffffffffffffffffff1673ffffffffffffffffffffffffffffffffffffffff1681526020019081526020016000206000018281548110610ce957610ce861369b565b5b90600052602060002001908054610cff906135bf565b610d0a929190612b71565b50600360003273ffffffffffffffffffffffffffffffffffffffff1673ffffffffffffffffffffffffffffffffffffffff168152602001908152602001600020600001805480610d5d57610d5c61372d565b5b600190038181906000526020600020016000610d799190612b31565b9055610d93565b8080610d8b9061375c565b915050610ae9565b50600360003273ffffffffffffffffffffffffffffffffffffffff1673ffffffffffffffffffffffffffffffffffffffff16815260200190815260200160002060010181604051610de491906134b3565b908152602001604051809103902060006101000a81549060ff02191690555b600581604051610e1391906134b3565b908152602001604051809103902060010160003273ffffffffffffffffffffffffffffffffffffffff1673ffffffffffffffffffffffffffffffffffffffff16815260200190815260200160002060009054906101000a900460ff161561114a5760005b600582604051610e8791906134b3565b9081526020016040518091039020600001805490508110156110da5732604051602001610eb491906137ec565b60405160208183030381529060405280519060200120600583604051610eda91906134b3565b90815260200160405180910390206000018281548110610efd57610efc61369b565b5b9060005260206000200160009054906101000a900473ffffffffffffffffffffffffffffffffffffffff16604051602001610f3891906137ec565b60405160208183030381529060405280519060200120036110c757600582604051610f6391906134b3565b90815260200160405180910390206000016001600584604051610f8691906134b3565b908152602001604051809103902060000180549050610fa591906136f9565b81548110610fb657610fb561369b565b5b9060005260206000200160009054906101000a900473ffffffffffffffffffffffffffffffffffffffff16600583604051610ff191906134b3565b908152602001604051809103902060000182815481106110145761101361369b565b5b9060005260206000200160006101000a81548173ffffffffffffffffffffffffffffffffffffffff021916908373ffffffffffffffffffffffffffffffffffffffff16021790555060058260405161106c91906134b3565b908152602001604051809103902060000180548061108d5761108c61372d565b5b6001900381819060005260206000200160006101000a81549073ffffffffffffffffffffffffffffffffffffffff021916905590556110da565b80806110d29061375c565b915050610e77565b506005816040516110eb91906134b3565b908152602001604051809103902060010160003273ffffffffffffffffffffffffffffffffffffffff1673ffffffffffffffffffffffffffffffffffffffff16815260200190815260200160002060006101000a81549060ff02191690555b8060405161115891906134b3565b60405180910390207fea97762ed95338290a631dc63c304d1d1e204d3c29f42d7c1a896761639c837c3260405161118f9190612f4a565b60405180910390a250565b60006005826040516111ac91906134b3565b9081526020016040518091039020600001805490509050919050565b60606000600360008473ffffffffffffffffffffffffffffffffffffffff1673ffffffffffffffffffffffffffffffffffffffff1681526020019081526020016000206000018054905067ffffffffffffffff81111561122b5761122a612c8f565b5b60405190808252806020026020018201604052801561126457816020015b611251612bfe565b8152602001906001900390816112495790505b50905060005b600360008573ffffffffffffffffffffffffffffffffffffffff1673ffffffffffffffffffffffffffffffffffffffff1681526020019081526020016000206000018054905081101561164957600260008573ffffffffffffffffffffffffffffffffffffffff1673ffffffffffffffffffffffffffffffffffffffff168152602001908152602001600020600360008673ffffffffffffffffffffffffffffffffffffffff1673ffffffffffffffffffffffffffffffffffffffff168152602001908152602001600020600001828154811061134a5761134961369b565b5b906000526020600020016040516113619190613684565b90815260200160405180910390206040518060a00160405290816000820160009054906101000a900473ffffffffffffffffffffffffffffffffffffffff1673ffffffffffffffffffffffffffffffffffffffff1673ffffffffffffffffffffffffffffffffffffffff1681526020016001820180546113e0906135bf565b80601f016020809104026020016040519081016040528092919081815260200182805461140c906135bf565b80156114595780601f1061142e57610100808354040283529160200191611459565b820191906000526020600020905b81548152906001019060200180831161143c57829003601f168201915b50505050508152602001600282018054611472906135bf565b80601f016020809104026020016040519081016040528092919081815260200182805461149e906135bf565b80156114eb5780601f106114c0576101008083540402835291602001916114eb565b820191906000526020600020905b8154815290600101906020018083116114ce57829003601f168201915b50505050508152602001600382018054611504906135bf565b80601f0160208091040260200160405190810160405280929190818152602001828054611530906135bf565b801561157d5780601f106115525761010080835404028352916020019161157d565b820191906000526020600020905b81548152906001019060200180831161156057829003601f168201915b50505050508152602001600482018054611596906135bf565b80601f01602080910402602001604051908101604052809291908181526020018280546115c2906135bf565b801561160f5780601f106115e45761010080835404028352916020019161160f565b820191906000526020600020905b8154815290600101906020018083116115f257829003601f168201915b50505050508152505082828151811061162b5761162a61369b565b5b602002602001018190525080806116419061375c565b91505061126a565b5080915050919050565b600160003273ffffffffffffffffffffffffffffffffffffffff1673ffffffffffffffffffffffffffffffffffffffff16815260200190815260200160002060009054906101000a900460ff166116df576040517f08c379a00000000000000000000000000000000000000000000000000000000081526004016116d690613853565b60405180910390fd5b6004816040516116ef91906134b3565b9081526020016040518091039020600260008473ffffffffffffffffffffffffffffffffffffffff1673ffffffffffffffffffffffffffffffffffffffff1681526020019081526020016000208260405161174a91906134b3565b90815260200160405180910390206002016040516117689190613684565b908152602001604051809103902060006101000a81549073ffffffffffffffffffffffffffffffffffffffff0219169055600260008373ffffffffffffffffffffffffffffffffffffffff1673ffffffffffffffffffffffffffffffffffffffff168152602001908152602001600020816040516117e691906134b3565b9081526020016040518091039020600080820160006101000a81549073ffffffffffffffffffffffffffffffffffffffff021916905560018201600061182c9190612b31565b60028201600061183c9190612b31565b60038201600061184c9190612b31565b60048201600061185c9190612b31565b5050600360008373ffffffffffffffffffffffffffffffffffffffff1673ffffffffffffffffffffffffffffffffffffffff168152602001908152602001600020600101816040516118ae91906134b3565b908152602001604051809103902060009054906101000a900460ff1615611bec5760005b600360008473ffffffffffffffffffffffffffffffffffffffff1673ffffffffffffffffffffffffffffffffffffffff16815260200190815260200160002060000180549050811015611b7c578160405160200161193091906134b3565b60405160208183030381529060405280519060200120600360008573ffffffffffffffffffffffffffffffffffffffff1673ffffffffffffffffffffffffffffffffffffffff168152602001908152602001600020600001828154811061199a5761199961369b565b5b906000526020600020016040516020016119b49190613684565b6040516020818303038152906040528051906020012003611b6957600360008473ffffffffffffffffffffffffffffffffffffffff1673ffffffffffffffffffffffffffffffffffffffff1681526020019081526020016000206000016001600360008673ffffffffffffffffffffffffffffffffffffffff1673ffffffffffffffffffffffffffffffffffffffff16815260200190815260200160002060000180549050611a6391906136f9565b81548110611a7457611a7361369b565b5b90600052602060002001600360008573ffffffffffffffffffffffffffffffffffffffff1673ffffffffffffffffffffffffffffffffffffffff1681526020019081526020016000206000018281548110611ad257611ad161369b565b5b90600052602060002001908054611ae8906135bf565b611af3929190612b71565b50600360008473ffffffffffffffffffffffffffffffffffffffff1673ffffffffffffffffffffffffffffffffffffffff168152602001908152602001600020600001805480611b4657611b4561372d565b5b600190038181906000526020600020016000611b629190612b31565b9055611b7c565b8080611b749061375c565b9150506118d2565b50600360008373ffffffffffffffffffffffffffffffffffffffff1673ffffffffffffffffffffffffffffffffffffffff16815260200190815260200160002060010181604051611bcd91906134b3565b908152602001604051809103902060006101000a81549060ff02191690555b600581604051611bfc91906134b3565b908152602001604051809103902060010160008373ffffffffffffffffffffffffffffffffffffffff1673ffffffffffffffffffffffffffffffffffffffff16815260200190815260200160002060009054906101000a900460ff1615611f2f5760005b600582604051611c7091906134b3565b908152602001604051809103902060000180549050811015611ebf5782604051602001611c9d91906137ec565b60405160208183030381529060405280519060200120600583604051611cc391906134b3565b90815260200160405180910390206000018281548110611ce657611ce561369b565b5b9060005260206000200160009054906101000a900473ffffffffffffffffffffffffffffffffffffffff16604051602001611d2191906137ec565b6040516020818303038152906040528051906020012003611eac57600582604051611d4c91906134b3565b90815260200160405180910390206000016001600584604051611d6f91906134b3565b908152602001604051809103902060000180549050611d8e91906136f9565b81548110611d9f57611d9e61369b565b5b9060005260206000200160009054906101000a900473ffffffffffffffffffffffffffffffffffffffff16600583604051611dda91906134b3565b90815260200160405180910390206000018281548110611dfd57611dfc61369b565b5b9060005260206000200160006101000a81548173ffffffffffffffffffffffffffffffffffffffff021916908373ffffffffffffffffffffffffffffffffffffffff160217905550600582604051611e5591906134b3565b9081526020016040518091039020600001805480611e7657611e7561372d565b5b6001900381819060005260206000200160006101000a81549073ffffffffffffffffffffffffffffffffffffffff021916905590555b8080611eb79061375c565b915050611c60565b50600581604051611ed091906134b3565b908152602001604051809103902060010160008373ffffffffffffffffffffffffffffffffffffffff1673ffffffffffffffffffffffffffffffffffffffff16815260200190815260200160002060006101000a81549060ff02191690555b80604051611f3d91906134b3565b60405180910390207fea97762ed95338290a631dc63c304d1d1e204d3c29f42d7c1a896761639c837c83604051611f749190612f4a565b60405180910390a25050565b60008054906101000a900473ffffffffffffffffffffffffffffffffffffffff1681565b600160003273ffffffffffffffffffffffffffffffffffffffff1673ffffffffffffffffffffffffffffffffffffffff16815260200190815260200160002060009054906101000a900460ff16612030576040517f08c379a000000000000000000000000000000000000000000000000000000000815260040161202790613853565b60405180910390fd5b6040518060a001604052808673ffffffffffffffffffffffffffffffffffffffff16815260200185815260200184815260200183815260200182815250600260008773ffffffffffffffffffffffffffffffffffffffff1673ffffffffffffffffffffffffffffffffffffffff168152602001908152602001600020856040516120ba91906134b3565b908152602001604051809103902060008201518160000160006101000a81548173ffffffffffffffffffffffffffffffffffffffff021916908373ffffffffffffffffffffffffffffffffffffffff160217905550602082015181600101908051906020019061212b929190612aab565b506040820151816002019080519060200190612148929190612aab565b506060820151816003019080519060200190612165929190612aab565b506080820151816004019080519060200190612182929190612aab565b50905050600360008673ffffffffffffffffffffffffffffffffffffffff1673ffffffffffffffffffffffffffffffffffffffff168152602001908152602001600020600101846040516121d691906134b3565b908152602001604051809103902060009054906101000a900460ff166122ea57600360008673ffffffffffffffffffffffffffffffffffffffff1673ffffffffffffffffffffffffffffffffffffffff16815260200190815260200160002060000184908060018154018082558091505060019003906000526020600020016000909190919091509080519060200190612271929190612aab565b506001600360008773ffffffffffffffffffffffffffffffffffffffff1673ffffffffffffffffffffffffffffffffffffffff168152602001908152602001600020600101856040516122c491906134b3565b908152602001604051809103902060006101000a81548160ff0219169083151502179055505b6005846040516122fa91906134b3565b908152602001604051809103902060010160008673ffffffffffffffffffffffffffffffffffffffff1673ffffffffffffffffffffffffffffffffffffffff16815260200190815260200160002060009054906101000a900460ff166124545760058460405161236a91906134b3565b9081526020016040518091039020600001859080600181540180825580915050600190039060005260206000200160009091909190916101000a81548173ffffffffffffffffffffffffffffffffffffffff021916908373ffffffffffffffffffffffffffffffffffffffff16021790555060016005856040516123ee91906134b3565b908152602001604051809103902060010160008773ffffffffffffffffffffffffffffffffffffffff1673ffffffffffffffffffffffffffffffffffffffff16815260200190815260200160002060006101000a81548160ff0219169083151502179055505b8460048560405161246591906134b3565b90815260200160405180910390208460405161248191906134b3565b908152602001604051809103902060006101000a81548173ffffffffffffffffffffffffffffffffffffffff021916908373ffffffffffffffffffffffffffffffffffffffff160217905550836040516124db91906134b3565b60405180910390207fb5a2f408b7892d24a32d714ac04f2bfddf80c2af2558c43a176a39e2a8b76e028685858560405161251894939291906134ca565b60405180910390a25050505050565b60008054906101000a900473ffffffffffffffffffffffffffffffffffffffff1673ffffffffffffffffffffffffffffffffffffffff163273ffffffffffffffffffffffffffffffffffffffff16146125b5576040517f08c379a00000000000000000000000000000000000000000000000000000000081526004016125ac90613570565b60405180910390fd5b600160008273ffffffffffffffffffffffffffffffffffffffff1673ffffffffffffffffffffffffffffffffffffffff16815260200190815260200160002060009054906101000a900460ff16612641576040517f08c379a0000000000000000000000000000000000000000000000000000000008152600401612638906138e5565b60405180910390fd5b806000806101000a81548173ffffffffffffffffffffffffffffffffffffffff021916908373ffffffffffffffffffffffffffffffffffffffff16021790555050565b60008054906101000a900473ffffffffffffffffffffffffffffffffffffffff1673ffffffffffffffffffffffffffffffffffffffff163273ffffffffffffffffffffffffffffffffffffffff1614612712576040517f08c379a000000000000000000000000000000000000000000000000000000000815260040161270990613570565b60405180910390fd5b60008054906101000a900473ffffffffffffffffffffffffffffffffffffffff1673ffffffffffffffffffffffffffffffffffffffff168173ffffffffffffffffffffffffffffffffffffffff16036127a0576040517f08c379a000000000000000000000000000000000000000000000000000000000815260040161279790613951565b60405180910390fd5b600160008273ffffffffffffffffffffffffffffffffffffffff1673ffffffffffffffffffffffffffffffffffffffff16815260200190815260200160002060006101000a81549060ff021916905550565b600260205281600052604060002081805160208101820180518482526020830160208501208183528095505050505050600091509150508060000160009054906101000a900473ffffffffffffffffffffffffffffffffffffffff169080600101805461285e906135bf565b80601f016020809104026020016040519081016040528092919081815260200182805461288a906135bf565b80156128d75780601f106128ac576101008083540402835291602001916128d7565b820191906000526020600020905b8154815290600101906020018083116128ba57829003601f168201915b5050505050908060020180546128ec906135bf565b80601f0160208091040260200160405190810160405280929190818152602001828054612918906135bf565b80156129655780601f1061293a57610100808354040283529160200191612965565b820191906000526020600020905b81548152906001019060200180831161294857829003601f168201915b50505050509080600301805461297a906135bf565b80601f01602080910402602001604051908101604052809291908181526020018280546129a6906135bf565b80156129f35780601f106129c8576101008083540402835291602001916129f3565b820191906000526020600020905b8154815290600101906020018083116129d657829003601f168201915b505050505090806004018054612a08906135bf565b80601f0160208091040260200160405190810160405280929190818152602001828054612a34906135bf565b8015612a815780601f10612a5657610100808354040283529160200191612a81565b820191906000526020600020905b815481529060010190602001808311612a6457829003601f168201915b5050505050905085565b60016020528060005260406000206000915054906101000a900460ff1681565b828054612ab7906135bf565b90600052602060002090601f016020900481019282612ad95760008555612b20565b82601f10612af257805160ff1916838001178555612b20565b82800160010185558215612b20579182015b82811115612b1f578251825591602001919060010190612b04565b5b509050612b2d9190612c43565b5090565b508054612b3d906135bf565b6000825580601f10612b4f5750612b6e565b601f016020900490600052602060002090810190612b6d9190612c43565b5b50565b828054612b7d906135bf565b90600052602060002090601f016020900481019282612b9f5760008555612bed565b82601f10612bb05780548555612bed565b82800160010185558215612bed57600052602060002091601f016020900482015b82811115612bec578254825591600101919060010190612bd1565b5b509050612bfa9190612c43565b5090565b6040518060a00160405280600073ffffffffffffffffffffffffffffffffffffffff168152602001606081526020016060815260200160608152602001606081525090565b5b80821115612c5c576000816000905550600101612c44565b5090565b6000604051905090565b600080fd5b600080fd5b600080fd5b600080fd5b6000601f19601f8301169050919050565b7f4e487b7100000000000000000000000000000000000000000000000000000000600052604160045260246000fd5b612cc782612c7e565b810181811067ffffffffffffffff82111715612ce657612ce5612c8f565b5b80604052505050565b6000612cf9612c60565b9050612d058282612cbe565b919050565b600067ffffffffffffffff821115612d2557612d24612c8f565b5b612d2e82612c7e565b9050602081019050919050565b82818337600083830152505050565b6000612d5d612d5884612d0a565b612cef565b905082815260208101848484011115612d7957612d78612c79565b5b612d84848285612d3b565b509392505050565b600082601f830112612da157612da0612c74565b5b8135612db1848260208601612d4a565b91505092915050565b60008060008060808587031215612dd457612dd3612c6a565b5b600085013567ffffffffffffffff811115612df257612df1612c6f565b5b612dfe87828801612d8c565b945050602085013567ffffffffffffffff811115612e1f57612e1e612c6f565b5b612e2b87828801612d8c565b935050604085013567ffffffffffffffff811115612e4c57612e4b612c6f565b5b612e5887828801612d8c565b925050606085013567ffffffffffffffff811115612e7957612e78612c6f565b5b612e8587828801612d8c565b91505092959194509250565b60008060408385031215612ea857612ea7612c6a565b5b600083013567ffffffffffffffff811115612ec657612ec5612c6f565b5b612ed285828601612d8c565b925050602083013567ffffffffffffffff811115612ef357612ef2612c6f565b5b612eff85828601612d8c565b9150509250929050565b600073ffffffffffffffffffffffffffffffffffffffff82169050919050565b6000612f3482612f09565b9050919050565b612f4481612f29565b82525050565b6000602082019050612f5f6000830184612f3b565b92915050565b612f6e81612f29565b8114612f7957600080fd5b50565b600081359050612f8b81612f65565b92915050565b600060208284031215612fa757612fa6612c6a565b5b6000612fb584828501612f7c565b91505092915050565b600060208284031215612fd457612fd3612c6a565b5b600082013567ffffffffffffffff811115612ff257612ff1612c6f565b5b612ffe84828501612d8c565b91505092915050565b6000819050919050565b61301a81613007565b82525050565b60006020820190506130356000830184613011565b92915050565b600081519050919050565b600082825260208201905092915050565b6000819050602082019050919050565b61307081612f29565b82525050565b600081519050919050565b600082825260208201905092915050565b60005b838110156130b0578082015181840152602081019050613095565b838111156130bf576000848401525b50505050565b60006130d082613076565b6130da8185613081565b93506130ea818560208601613092565b6130f381612c7e565b840191505092915050565b600060a0830160008301516131166000860182613067565b506020830151848203602086015261312e82826130c5565b9150506040830151848203604086015261314882826130c5565b9150506060830151848203606086015261316282826130c5565b9150506080830151848203608086015261317c82826130c5565b9150508091505092915050565b600061319583836130fe565b905092915050565b6000602082019050919050565b60006131b58261303b565b6131bf8185613046565b9350836020820285016131d185613057565b8060005b8581101561320d57848403895281516131ee8582613189565b94506131f98361319d565b925060208a019950506001810190506131d5565b50829750879550505050505092915050565b6000602082019050818103600083015261323981846131aa565b905092915050565b6000806040838503121561325857613257612c6a565b5b600061326685828601612f7c565b925050602083013567ffffffffffffffff81111561328757613286612c6f565b5b61329385828601612d8c565b9150509250929050565b600080600080600060a086880312156132b9576132b8612c6a565b5b60006132c788828901612f7c565b955050602086013567ffffffffffffffff8111156132e8576132e7612c6f565b5b6132f488828901612d8c565b945050604086013567ffffffffffffffff81111561331557613314612c6f565b5b61332188828901612d8c565b935050606086013567ffffffffffffffff81111561334257613341612c6f565b5b61334e88828901612d8c565b925050608086013567ffffffffffffffff81111561336f5761336e612c6f565b5b61337b88828901612d8c565b9150509295509295909350565b600082825260208201905092915050565b60006133a482613076565b6133ae8185613388565b93506133be818560208601613092565b6133c781612c7e565b840191505092915050565b600060a0820190506133e76000830188612f3b565b81810360208301526133f98187613399565b9050818103604083015261340d8186613399565b905081810360608301526134218185613399565b905081810360808301526134358184613399565b90509695505050505050565b60008115159050919050565b61345681613441565b82525050565b6000602082019050613471600083018461344d565b92915050565b600081905092915050565b600061348d82613076565b6134978185613477565b93506134a7818560208601613092565b80840191505092915050565b60006134bf8284613482565b915081905092915050565b60006080820190506134df6000830187612f3b565b81810360208301526134f18186613399565b905081810360408301526135058185613399565b905081810360608301526135198184613399565b905095945050505050565b7f43616c6c6572206973206e6f74206f776e657200000000000000000000000000600082015250565b600061355a601383613388565b915061356582613524565b602082019050919050565b600060208201905081810360008301526135898161354d565b9050919050565b7f4e487b7100000000000000000000000000000000000000000000000000000000600052602260045260246000fd5b600060028204905060018216806135d757607f821691505b6020821081036135ea576135e9613590565b5b50919050565b60008190508160005260206000209050919050565b60008154613612816135bf565b61361c8186613477565b9450600182166000811461363757600181146136485761367b565b60ff1983168652818601935061367b565b613651856135f0565b60005b8381101561367357815481890152600182019150602081019050613654565b838801955050505b50505092915050565b60006136908284613605565b915081905092915050565b7f4e487b7100000000000000000000000000000000000000000000000000000000600052603260045260246000fd5b7f4e487b7100000000000000000000000000000000000000000000000000000000600052601160045260246000fd5b600061370482613007565b915061370f83613007565b925082821015613722576137216136ca565b5b828203905092915050565b7f4e487b7100000000000000000000000000000000000000000000000000000000600052603160045260246000fd5b600061376782613007565b91507fffffffffffffffffffffffffffffffffffffffffffffffffffffffffffffffff8203613799576137986136ca565b5b600182019050919050565b60008160601b9050919050565b60006137bc826137a4565b9050919050565b60006137ce826137b1565b9050919050565b6137e66137e182612f29565b6137c3565b82525050565b60006137f882846137d5565b60148201915081905092915050565b7f43616c6c6572206973206e6f74206d616e616765720000000000000000000000600082015250565b600061383d601583613388565b915061384882613807565b602082019050919050565b6000602082019050818103600083015261386c81613830565b9050919050565b7f6e65774f776e6572206e65656420746f206265206d616e61676572206669727360008201527f742e000000000000000000000000000000000000000000000000000000000000602082015250565b60006138cf602283613388565b91506138da82613873565b604082019050919050565b600060208201905081810360008301526138fe816138c2565b9050919050565b7f6f776e6572206e65656420746f206265206368616e6765642066697273742e00600082015250565b600061393b601f83613388565b915061394682613905565b602082019050919050565b6000602082019050818103600083015261396a8161392e565b905091905056fea2646970667358221220b5fca8a5bd096f4a377836954ffa064dbc2491cce31ebd97069b0bc3e4bf61d164736f6c634300080d0033",
    "immutableReferences": {},
    "source": "// SPDX-License-Identifier: MIT\npragma experimental ABIEncoderV2;\npragma solidity >=0.4.22 <0.9.0;\n\ncontract RumAccount {\n\n  struct StringSet {\n    string[] values;\n    mapping(string => bool) has;\n  }\n\n  struct AddressSet {\n    address[] values;\n    mapping(address => bool) has;\n  }\n\n  struct Account {\n    address user; // user_address\n    string payment_provider;\n    string payment_account;\n    string meta;\n    string memo;\n  }\n\n  modifier isOwner() {\n    require(tx.origin == owner, \"Caller is not owner\");\n    _;\n  }\n\n  modifier isManager() {\n    require(managers[tx.origin], \"Caller is not manager\");\n    _;\n  }\n\n  address public owner;\n  mapping(address => bool) public managers;\n\n  constructor() {\n    owner = tx.origin;\n    managers[tx.origin] = true;\n  }\n\n  function changeOwner(address newOwner) public isOwner {\n    require(managers[newOwner], \"newOwner need to be manager first.\");\n    owner = newOwner;\n  }\n\n  function addManager(address manager) public isOwner {\n    managers[manager] = true;\n  }\n\n  function removeManager(address manager) public isOwner {\n    require(manager != owner, \"owner need to be changed first.\");\n    delete managers[manager];\n  }\n\n  mapping(address => mapping(string => Account)) public account;\n  mapping(address => StringSet) private _accounts;\n  mapping(string => mapping(string => address)) public userAddress;\n  mapping(string => AddressSet) private _providerUsers;\n\n  event Bind(address user, string indexed payment_provider, string payment_account, string meta, string memo);\n\n  event UnBind(address user, string indexed payment_provider);\n\n  function bind(address user, string memory payment_provider,string memory payment_account, string memory meta, string memory memo) public isManager {\n    account[user][payment_provider] = Account({\n      user: user,\n      payment_provider: payment_provider,\n      payment_account: payment_account,\n      meta: meta,\n      memo: memo\n    }); \n\n    if (!_accounts[user].has[payment_provider]) {\n      _accounts[user].values.push(payment_provider);\n      _accounts[user].has[payment_provider] = true;\n    }\n\n    if (!_providerUsers[payment_provider].has[user]) {\n      _providerUsers[payment_provider].values.push(user);\n      _providerUsers[payment_provider].has[user] = true;\n    }\n\n    userAddress[payment_provider][payment_account] = user;\n\n    emit Bind(user, payment_provider, payment_account, meta, memo);\n  }\n\n  function selfBind(string memory payment_provider,string memory payment_account, string memory meta, string memory memo) public {\n    account[tx.origin][payment_provider] = Account({\n      user: tx.origin,\n      payment_provider: payment_provider,\n      payment_account: payment_account,\n      meta: meta,\n      memo: memo\n    }); \n\n    if (!_accounts[tx.origin].has[payment_provider]) {\n      _accounts[tx.origin].values.push(payment_provider);\n      _accounts[tx.origin].has[payment_provider] = true;\n    }\n\n    if (!_providerUsers[payment_provider].has[tx.origin]) {\n      _providerUsers[payment_provider].values.push(tx.origin);\n      _providerUsers[payment_provider].has[tx.origin] = true;\n    }\n\n    userAddress[payment_provider][payment_account] = tx.origin;\n\n    emit Bind(tx.origin, payment_provider, payment_account, meta, memo);\n  }\n\n  function unBind(address user, string memory payment_provider) public isManager {\n    delete userAddress[payment_provider][account[user][payment_provider].payment_account];\n    delete account[user][payment_provider];\n\n    if (_accounts[user].has[payment_provider]) {\n      for(uint i = 0; i < _accounts[user].values.length; i++) {\n        if (keccak256(abi.encodePacked(_accounts[user].values[i])) == keccak256(abi.encodePacked(payment_provider))) {\n          _accounts[user].values[i] = _accounts[user].values[_accounts[user].values.length - 1];\n          _accounts[user].values.pop();\n          break;\n        }\n      }\n      delete _accounts[user].has[payment_provider];\n    }\n\n    if (_providerUsers[payment_provider].has[user]) {\n      for(uint i = 0; i < _providerUsers[payment_provider].values.length; i++) {\n        if (keccak256(abi.encodePacked(_providerUsers[payment_provider].values[i])) == keccak256(abi.encodePacked(user))) {\n          _providerUsers[payment_provider].values[i] = _providerUsers[payment_provider].values[_providerUsers[payment_provider].values.length - 1];\n          _providerUsers[payment_provider].values.pop();\n        }\n      }\n      delete _providerUsers[payment_provider].has[user];\n    }\n\n    emit UnBind(user, payment_provider);\n  }\n\n  function selfUnBind(string memory payment_provider) public {\n    delete userAddress[payment_provider][account[tx.origin][payment_provider].payment_account];\n    delete account[tx.origin][payment_provider];\n\n    if (_accounts[tx.origin].has[payment_provider]) {\n      for(uint i = 0; i < _accounts[tx.origin].values.length; i++) {\n        if (keccak256(abi.encodePacked(_accounts[tx.origin].values[i])) == keccak256(abi.encodePacked(payment_provider))) {\n          _accounts[tx.origin].values[i] = _accounts[tx.origin].values[_accounts[tx.origin].values.length - 1];\n          _accounts[tx.origin].values.pop();\n          break;\n        }\n      }\n      delete _accounts[tx.origin].has[payment_provider];\n    }\n\n    if (_providerUsers[payment_provider].has[tx.origin]) {\n      for(uint i = 0; i < _providerUsers[payment_provider].values.length; i++) {\n        if (keccak256(abi.encodePacked(_providerUsers[payment_provider].values[i])) == keccak256(abi.encodePacked(tx.origin))) {\n          _providerUsers[payment_provider].values[i] = _providerUsers[payment_provider].values[_providerUsers[payment_provider].values.length - 1];\n          _providerUsers[payment_provider].values.pop();\n          break;\n        }\n      }\n      delete _providerUsers[payment_provider].has[tx.origin];\n    }\n\n    emit UnBind(tx.origin, payment_provider);\n  }\n\n  function accounts(address user) public view returns(Account[] memory) {\n    Account[] memory res = new Account[](_accounts[user].values.length);\n    for(uint i = 0; i < _accounts[user].values.length; i++) {\n      res[i] = account[user][_accounts[user].values[i]];\n    }\n    return res;\n  }\n\n  function providerUsersCount(string memory payment_provider) public view returns(uint) {\n    return  _providerUsers[payment_provider].values.length;\n  }\n}\n",
    "sourcePath": "/home/hanwei/coding/press.one/rum/rumsc/contracts/RumAccount.sol",
    "compiler": {
        "name": "solc",
        "version": "0.8.13+commit.abaa5c0e.Emscripten.clang"
    },
    "schemaVersion": "3.4.7",
    "updatedAt": "2022-04-22T09:19:38.903Z",
    "networkType": "ethereum",
    "devdoc": {
        "kind": "dev",
        "methods": {},
        "version": 1
    },
    "userdoc": {
        "kind": "user",
        "methods": {},
        "version": 1
    }
}