{
  "contractName": "RumERC20",
  "abi": [
    {
      "inputs": [
        {
          "internalType": "string",
          "name": "name_",
          "type": "string"
        },
        {
          "internalType": "string",
          "name": "symbol_",
          "type": "string"
        },
        {
          "internalType": "uint256",
          "name": "cap",
          "type": "uint256"
        },
        {
          "internalType": "address",
          "name": "minter",
          "type": "address"
        }
      ],
      "stateMutability": "nonpayable",
      "type": "constructor"
    },
    {
      "anonymous": false,
      "inputs": [
        {
          "indexed": true,
          "internalType": "address",
          "name": "owner",
          "type": "address"
        },
        {
          "indexed": true,
          "internalType": "address",
          "name": "spender",
          "type": "address"
        },
        {
          "indexed": false,
          "internalType": "uint256",
          "name": "value",
          "type": "uint256"
        }
      ],
      "name": "Approval",
      "type": "event"
    },
    {
      "anonymous": false,
      "inputs": [
        {
          "indexed": true,
          "internalType": "address",
          "name": "from",
          "type": "address"
        },
        {
          "indexed": true,
          "internalType": "address",
          "name": "to",
          "type": "address"
        },
        {
          "indexed": false,
          "internalType": "uint256",
          "name": "value",
          "type": "uint256"
        }
      ],
      "name": "Transfer",
      "type": "event"
    },
    {
      "inputs": [],
      "name": "name",
      "outputs": [
        {
          "internalType": "string",
          "name": "",
          "type": "string"
        }
      ],
      "stateMutability": "view",
      "type": "function"
    },
    {
      "inputs": [],
      "name": "symbol",
      "outputs": [
        {
          "internalType": "string",
          "name": "",
          "type": "string"
        }
      ],
      "stateMutability": "view",
      "type": "function"
    },
    {
      "inputs": [],
      "name": "decimals",
      "outputs": [
        {
          "internalType": "uint8",
          "name": "",
          "type": "uint8"
        }
      ],
      "stateMutability": "view",
      "type": "function"
    },
    {
      "inputs": [],
      "name": "totalSupply",
      "outputs": [
        {
          "internalType": "uint256",
          "name": "",
          "type": "uint256"
        }
      ],
      "stateMutability": "view",
      "type": "function"
    },
    {
      "inputs": [
        {
          "internalType": "address",
          "name": "account",
          "type": "address"
        }
      ],
      "name": "balanceOf",
      "outputs": [
        {
          "internalType": "uint256",
          "name": "",
          "type": "uint256"
        }
      ],
      "stateMutability": "view",
      "type": "function"
    },
    {
      "inputs": [
        {
          "internalType": "address",
          "name": "recipient",
          "type": "address"
        },
        {
          "internalType": "uint256",
          "name": "amount",
          "type": "uint256"
        },
        {
          "internalType": "string",
          "name": "uuid",
          "type": "string"
        }
      ],
      "name": "rumTransfer",
      "outputs": [
        {
          "internalType": "bool",
          "name": "",
          "type": "bool"
        }
      ],
      "stateMutability": "nonpayable",
      "type": "function"
    },
    {
      "inputs": [
        {
          "internalType": "address",
          "name": "spender",
          "type": "address"
        },
        {
          "internalType": "uint256",
          "name": "amount",
          "type": "uint256"
        },
        {
          "internalType": "string",
          "name": "uuid",
          "type": "string"
        }
      ],
      "name": "rumApprove",
      "outputs": [
        {
          "internalType": "bool",
          "name": "",
          "type": "bool"
        }
      ],
      "stateMutability": "nonpayable",
      "type": "function"
    },
    {
      "inputs": [
        {
          "internalType": "address",
          "name": "sender",
          "type": "address"
        },
        {
          "internalType": "address",
          "name": "recipient",
          "type": "address"
        },
        {
          "internalType": "uint256",
          "name": "amount",
          "type": "uint256"
        },
        {
          "internalType": "string",
          "name": "uuid",
          "type": "string"
        }
      ],
      "name": "rumTransferFrom",
      "outputs": [
        {
          "internalType": "bool",
          "name": "",
          "type": "bool"
        }
      ],
      "stateMutability": "nonpayable",
      "type": "function"
    },
    {
      "inputs": [
        {
          "internalType": "address",
          "name": "recipient",
          "type": "address"
        },
        {
          "internalType": "uint256",
          "name": "amount",
          "type": "uint256"
        }
      ],
      "name": "transfer",
      "outputs": [
        {
          "internalType": "bool",
          "name": "",
          "type": "bool"
        }
      ],
      "stateMutability": "nonpayable",
      "type": "function"
    },
    {
      "inputs": [
        {
          "internalType": "address",
          "name": "owner",
          "type": "address"
        },
        {
          "internalType": "address",
          "name": "spender",
          "type": "address"
        }
      ],
      "name": "allowance",
      "outputs": [
        {
          "internalType": "uint256",
          "name": "",
          "type": "uint256"
        }
      ],
      "stateMutability": "view",
      "type": "function"
    },
    {
      "inputs": [
        {
          "internalType": "address",
          "name": "spender",
          "type": "address"
        },
        {
          "internalType": "uint256",
          "name": "amount",
          "type": "uint256"
        }
      ],
      "name": "approve",
      "outputs": [
        {
          "internalType": "bool",
          "name": "",
          "type": "bool"
        }
      ],
      "stateMutability": "nonpayable",
      "type": "function"
    },
    {
      "inputs": [
        {
          "internalType": "address",
          "name": "sender",
          "type": "address"
        },
        {
          "internalType": "address",
          "name": "recipient",
          "type": "address"
        },
        {
          "internalType": "uint256",
          "name": "amount",
          "type": "uint256"
        }
      ],
      "name": "transferFrom",
      "outputs": [
        {
          "internalType": "bool",
          "name": "",
          "type": "bool"
        }
      ],
      "stateMutability": "nonpayable",
      "type": "function"
    }
  ],
  "bytecode": "0x60806040523480156200001157600080fd5b506040516200213a3803806200213a8339818101604052810190620000379190620004c2565b83600490805190602001906200004f929190620001d5565b50826005908051906020019062000068929190620001d5565b506200007b81836200008560201b60201c565b5050505062000739565b600073ffffffffffffffffffffffffffffffffffffffff168273ffffffffffffffffffffffffffffffffffffffff1603620000f7576040517f08c379a0000000000000000000000000000000000000000000000000000000008152600401620000ee90620005f9565b60405180910390fd5b80600360008282546200010b91906200064a565b92505081905550806000808473ffffffffffffffffffffffffffffffffffffffff1673ffffffffffffffffffffffffffffffffffffffff16815260200190815260200160002060008282546200016291906200064a565b925050819055508173ffffffffffffffffffffffffffffffffffffffff16600073ffffffffffffffffffffffffffffffffffffffff167fddf252ad1be2c89b69c2b068fc378daa952ba7f163c4a11628f55a4df523b3ef83604051620001c99190620006b8565b60405180910390a35050565b828054620001e39062000704565b90600052602060002090601f01602090048101928262000207576000855562000253565b82601f106200022257805160ff191683800117855562000253565b8280016001018555821562000253579182015b828111156200025257825182559160200191906001019062000235565b5b50905062000262919062000266565b5090565b5b808211156200028157600081600090555060010162000267565b5090565b6000604051905090565b600080fd5b600080fd5b600080fd5b600080fd5b6000601f19601f8301169050919050565b7f4e487b7100000000000000000000000000000000000000000000000000000000600052604160045260246000fd5b620002ee82620002a3565b810181811067ffffffffffffffff8211171562000310576200030f620002b4565b5b80604052505050565b60006200032562000285565b9050620003338282620002e3565b919050565b600067ffffffffffffffff821115620003565762000355620002b4565b5b6200036182620002a3565b9050602081019050919050565b60005b838110156200038e57808201518184015260208101905062000371565b838111156200039e576000848401525b50505050565b6000620003bb620003b58462000338565b62000319565b905082815260208101848484011115620003da57620003d96200029e565b5b620003e78482856200036e565b509392505050565b600082601f83011262000407576200040662000299565b5b815162000419848260208601620003a4565b91505092915050565b6000819050919050565b620004378162000422565b81146200044357600080fd5b50565b60008151905062000457816200042c565b92915050565b600073ffffffffffffffffffffffffffffffffffffffff82169050919050565b60006200048a826200045d565b9050919050565b6200049c816200047d565b8114620004a857600080fd5b50565b600081519050620004bc8162000491565b92915050565b60008060008060808587031215620004df57620004de6200028f565b5b600085015167ffffffffffffffff8111156200050057620004ff62000294565b5b6200050e87828801620003ef565b945050602085015167ffffffffffffffff81111562000532576200053162000294565b5b6200054087828801620003ef565b9350506040620005538782880162000446565b92505060606200056687828801620004ab565b91505092959194509250565b600082825260208201905092915050565b7f52756d45524332303a206d696e7420746f20746865207a65726f20616464726560008201527f7373000000000000000000000000000000000000000000000000000000000000602082015250565b6000620005e160228362000572565b9150620005ee8262000583565b604082019050919050565b600060208201905081810360008301526200061481620005d2565b9050919050565b7f4e487b7100000000000000000000000000000000000000000000000000000000600052601160045260246000fd5b6000620006578262000422565b9150620006648362000422565b9250827fffffffffffffffffffffffffffffffffffffffffffffffffffffffffffffffff038211156200069c576200069b6200061b565b5b828201905092915050565b620006b28162000422565b82525050565b6000602082019050620006cf6000830184620006a7565b92915050565b7f4e487b7100000000000000000000000000000000000000000000000000000000600052602260045260246000fd5b600060028204905060018216806200071d57607f821691505b602082108103620007335762000732620006d5565b5b50919050565b6119f180620007496000396000f3fe608060405234801561001057600080fd5b50600436106100b45760003560e01c806370a082311161007157806370a08231146101a357806395d89b41146101d3578063a9059cbb146101f1578063a92e114c14610221578063dd62ed3e14610251578063f4dd5b4614610281576100b4565b806306fdde03146100b9578063095ea7b3146100d757806318160ddd1461010757806323b872dd1461012557806324e9389d14610155578063313ce56714610185575b600080fd5b6100c16102b1565b6040516100ce9190610eb9565b60405180910390f35b6100f160048036038101906100ec9190610f83565b610343565b6040516100fe9190610fde565b60405180910390f35b61010f610361565b60405161011c9190611008565b60405180910390f35b61013f600480360381019061013a9190611023565b61036b565b60405161014c9190610fde565b60405180910390f35b61016f600480360381019061016a91906111ab565b610463565b60405161017c9190610fde565b60405180910390f35b61018d61056e565b60405161019a9190611236565b60405180910390f35b6101bd60048036038101906101b89190611251565b610577565b6040516101ca9190611008565b60405180910390f35b6101db6105bf565b6040516101e89190610eb9565b60405180910390f35b61020b60048036038101906102069190610f83565b610651565b6040516102189190610fde565b60405180910390f35b61023b600480360381019061023691906111ab565b61066f565b6040516102489190610fde565b60405180910390f35b61026b6004803603810190610266919061127e565b61077a565b6040516102789190611008565b60405180910390f35b61029b600480360381019061029691906112be565b610801565b6040516102a89190610fde565b60405180910390f35b6060600480546102c090611370565b80601f01602080910402602001604051908101604052809291908181526020018280546102ec90611370565b80156103395780601f1061030e57610100808354040283529160200191610339565b820191906000526020600020905b81548152906001019060200180831161031c57829003601f168201915b5050505050905090565b60006103576103506109e6565b84846109ee565b6001905092915050565b6000600354905090565b6000610378848484610bb7565b6000600160008673ffffffffffffffffffffffffffffffffffffffff1673ffffffffffffffffffffffffffffffffffffffff16815260200190815260200160002060006103c36109e6565b73ffffffffffffffffffffffffffffffffffffffff1673ffffffffffffffffffffffffffffffffffffffff16815260200190815260200160002054905082811015610443576040517f08c379a000000000000000000000000000000000000000000000000000000000815260040161043a90611413565b60405180910390fd5b6104578561044f6109e6565b8584036109ee565b60019150509392505050565b60008082905060008151036104ad576040517f08c379a00000000000000000000000000000000000000000000000000000000081526004016104a49061147f565b60405180910390fd5b6002836040516104bd91906114db565b908152602001604051809103902060009054906101000a900460ff1615610519576040517f08c379a00000000000000000000000000000000000000000000000000000000081526004016105109061153e565b60405180910390fd5b61052b6105246109e6565b86866109ee565b600160028460405161053d91906114db565b908152602001604051809103902060006101000a81548160ff02191690831515021790555060019150509392505050565b60006012905090565b60008060008373ffffffffffffffffffffffffffffffffffffffff1673ffffffffffffffffffffffffffffffffffffffff168152602001908152602001600020549050919050565b6060600580546105ce90611370565b80601f01602080910402602001604051908101604052809291908181526020018280546105fa90611370565b80156106475780601f1061061c57610100808354040283529160200191610647565b820191906000526020600020905b81548152906001019060200180831161062a57829003601f168201915b5050505050905090565b600061066561065e6109e6565b8484610bb7565b6001905092915050565b60008082905060008151036106b9576040517f08c379a00000000000000000000000000000000000000000000000000000000081526004016106b09061147f565b60405180910390fd5b6002836040516106c991906114db565b908152602001604051809103902060009054906101000a900460ff1615610725576040517f08c379a000000000000000000000000000000000000000000000000000000000815260040161071c906115aa565b60405180910390fd5b6107376107306109e6565b8686610bb7565b600160028460405161074991906114db565b908152602001604051809103902060006101000a81548160ff02191690831515021790555060019150509392505050565b6000600160008473ffffffffffffffffffffffffffffffffffffffff1673ffffffffffffffffffffffffffffffffffffffff16815260200190815260200160002060008373ffffffffffffffffffffffffffffffffffffffff1673ffffffffffffffffffffffffffffffffffffffff16815260200190815260200160002054905092915050565b600080829050600081510361084b576040517f08c379a00000000000000000000000000000000000000000000000000000000081526004016108429061147f565b60405180910390fd5b60028360405161085b91906114db565b908152602001604051809103902060009054906101000a900460ff16156108b7576040517f08c379a00000000000000000000000000000000000000000000000000000000081526004016108ae9061163c565b60405180910390fd5b6108c2868686610bb7565b6000600160008873ffffffffffffffffffffffffffffffffffffffff1673ffffffffffffffffffffffffffffffffffffffff168152602001908152602001600020600061090d6109e6565b73ffffffffffffffffffffffffffffffffffffffff1673ffffffffffffffffffffffffffffffffffffffff1681526020019081526020016000205490508481101561098d576040517f08c379a000000000000000000000000000000000000000000000000000000000815260040161098490611413565b60405180910390fd5b6109a1876109996109e6565b8784036109ee565b60016002856040516109b391906114db565b908152602001604051809103902060006101000a81548160ff021916908315150217905550600192505050949350505050565b600033905090565b600073ffffffffffffffffffffffffffffffffffffffff168373ffffffffffffffffffffffffffffffffffffffff1603610a5d576040517f08c379a0000000000000000000000000000000000000000000000000000000008152600401610a54906116ce565b60405180910390fd5b600073ffffffffffffffffffffffffffffffffffffffff168273ffffffffffffffffffffffffffffffffffffffff1603610acc576040517f08c379a0000000000000000000000000000000000000000000000000000000008152600401610ac390611760565b60405180910390fd5b80600160008573ffffffffffffffffffffffffffffffffffffffff1673ffffffffffffffffffffffffffffffffffffffff16815260200190815260200160002060008473ffffffffffffffffffffffffffffffffffffffff1673ffffffffffffffffffffffffffffffffffffffff168152602001908152602001600020819055508173ffffffffffffffffffffffffffffffffffffffff168373ffffffffffffffffffffffffffffffffffffffff167f8c5be1e5ebec7d5bd14f71427d1e84f3dd0314c0f7b2291e5b200ac8c7c3b92583604051610baa9190611008565b60405180910390a3505050565b600073ffffffffffffffffffffffffffffffffffffffff168373ffffffffffffffffffffffffffffffffffffffff1603610c26576040517f08c379a0000000000000000000000000000000000000000000000000000000008152600401610c1d906117f2565b60405180910390fd5b600073ffffffffffffffffffffffffffffffffffffffff168273ffffffffffffffffffffffffffffffffffffffff1603610c95576040517f08c379a0000000000000000000000000000000000000000000000000000000008152600401610c8c90611884565b60405180910390fd5b60008060008573ffffffffffffffffffffffffffffffffffffffff1673ffffffffffffffffffffffffffffffffffffffff16815260200190815260200160002054905081811015610d1b576040517f08c379a0000000000000000000000000000000000000000000000000000000008152600401610d1290611916565b60405180910390fd5b8181036000808673ffffffffffffffffffffffffffffffffffffffff1673ffffffffffffffffffffffffffffffffffffffff16815260200190815260200160002081905550816000808573ffffffffffffffffffffffffffffffffffffffff1673ffffffffffffffffffffffffffffffffffffffff1681526020019081526020016000206000828254610dae9190611965565b925050819055508273ffffffffffffffffffffffffffffffffffffffff168473ffffffffffffffffffffffffffffffffffffffff167fddf252ad1be2c89b69c2b068fc378daa952ba7f163c4a11628f55a4df523b3ef84604051610e129190611008565b60405180910390a350505050565b600081519050919050565b600082825260208201905092915050565b60005b83811015610e5a578082015181840152602081019050610e3f565b83811115610e69576000848401525b50505050565b6000601f19601f8301169050919050565b6000610e8b82610e20565b610e958185610e2b565b9350610ea5818560208601610e3c565b610eae81610e6f565b840191505092915050565b60006020820190508181036000830152610ed38184610e80565b905092915050565b6000604051905090565b600080fd5b600080fd5b600073ffffffffffffffffffffffffffffffffffffffff82169050919050565b6000610f1a82610eef565b9050919050565b610f2a81610f0f565b8114610f3557600080fd5b50565b600081359050610f4781610f21565b92915050565b6000819050919050565b610f6081610f4d565b8114610f6b57600080fd5b50565b600081359050610f7d81610f57565b92915050565b60008060408385031215610f9a57610f99610ee5565b5b6000610fa885828601610f38565b9250506020610fb985828601610f6e565b9150509250929050565b60008115159050919050565b610fd881610fc3565b82525050565b6000602082019050610ff36000830184610fcf565b92915050565b61100281610f4d565b82525050565b600060208201905061101d6000830184610ff9565b92915050565b60008060006060848603121561103c5761103b610ee5565b5b600061104a86828701610f38565b935050602061105b86828701610f38565b925050604061106c86828701610f6e565b9150509250925092565b600080fd5b600080fd5b7f4e487b7100000000000000000000000000000000000000000000000000000000600052604160045260246000fd5b6110b882610e6f565b810181811067ffffffffffffffff821117156110d7576110d6611080565b5b80604052505050565b60006110ea610edb565b90506110f682826110af565b919050565b600067ffffffffffffffff82111561111657611115611080565b5b61111f82610e6f565b9050602081019050919050565b82818337600083830152505050565b600061114e611149846110fb565b6110e0565b90508281526020810184848401111561116a5761116961107b565b5b61117584828561112c565b509392505050565b600082601f83011261119257611191611076565b5b81356111a284826020860161113b565b91505092915050565b6000806000606084860312156111c4576111c3610ee5565b5b60006111d286828701610f38565b93505060206111e386828701610f6e565b925050604084013567ffffffffffffffff81111561120457611203610eea565b5b6112108682870161117d565b9150509250925092565b600060ff82169050919050565b6112308161121a565b82525050565b600060208201905061124b6000830184611227565b92915050565b60006020828403121561126757611266610ee5565b5b600061127584828501610f38565b91505092915050565b6000806040838503121561129557611294610ee5565b5b60006112a385828601610f38565b92505060206112b485828601610f38565b9150509250929050565b600080600080608085870312156112d8576112d7610ee5565b5b60006112e687828801610f38565b94505060206112f787828801610f38565b935050604061130887828801610f6e565b925050606085013567ffffffffffffffff81111561132957611328610eea565b5b6113358782880161117d565b91505092959194509250565b7f4e487b7100000000000000000000000000000000000000000000000000000000600052602260045260246000fd5b6000600282049050600182168061138857607f821691505b60208210810361139b5761139a611341565b5b50919050565b7f52756d45524332303a207472616e7366657220616d6f756e742065786365656460008201527f7320616c6c6f77616e6365000000000000000000000000000000000000000000602082015250565b60006113fd602b83610e2b565b9150611408826113a1565b604082019050919050565b6000602082019050818103600083015261142c816113f0565b9050919050565b7f52756d45524332303a207575696420697320656d707479000000000000000000600082015250565b6000611469601783610e2b565b915061147482611433565b602082019050919050565b600060208201905081810360008301526114988161145c565b9050919050565b600081905092915050565b60006114b582610e20565b6114bf818561149f565b93506114cf818560208601610e3c565b80840191505092915050565b60006114e782846114aa565b915081905092915050565b7f52756d45524332303a207468697320617070726f76652068617320646f6e6500600082015250565b6000611528601f83610e2b565b9150611533826114f2565b602082019050919050565b600060208201905081810360008301526115578161151b565b9050919050565b7f52756d45524332303a2074686973207472616e736665722068617320646f6e65600082015250565b6000611594602083610e2b565b915061159f8261155e565b602082019050919050565b600060208201905081810360008301526115c381611587565b9050919050565b7f52756d45524332303a2074686973207472616e7366657246726f6d206861732060008201527f646f6e6500000000000000000000000000000000000000000000000000000000602082015250565b6000611626602483610e2b565b9150611631826115ca565b604082019050919050565b6000602082019050818103600083015261165581611619565b9050919050565b7f52756d45524332303a20617070726f76652066726f6d20746865207a65726f2060008201527f6164647265737300000000000000000000000000000000000000000000000000602082015250565b60006116b8602783610e2b565b91506116c38261165c565b604082019050919050565b600060208201905081810360008301526116e7816116ab565b9050919050565b7f52756d45524332303a20617070726f766520746f20746865207a65726f20616460008201527f6472657373000000000000000000000000000000000000000000000000000000602082015250565b600061174a602583610e2b565b9150611755826116ee565b604082019050919050565b600060208201905081810360008301526117798161173d565b9050919050565b7f52756d45524332303a207472616e736665722066726f6d20746865207a65726f60008201527f2061646472657373000000000000000000000000000000000000000000000000602082015250565b60006117dc602883610e2b565b91506117e782611780565b604082019050919050565b6000602082019050818103600083015261180b816117cf565b9050919050565b7f52756d45524332303a207472616e7366657220746f20746865207a65726f206160008201527f6464726573730000000000000000000000000000000000000000000000000000602082015250565b600061186e602683610e2b565b915061187982611812565b604082019050919050565b6000602082019050818103600083015261189d81611861565b9050919050565b7f52756d45524332303a207472616e7366657220616d6f756e742065786365656460008201527f732062616c616e63650000000000000000000000000000000000000000000000602082015250565b6000611900602983610e2b565b915061190b826118a4565b604082019050919050565b6000602082019050818103600083015261192f816118f3565b9050919050565b7f4e487b7100000000000000000000000000000000000000000000000000000000600052601160045260246000fd5b600061197082610f4d565b915061197b83610f4d565b9250827fffffffffffffffffffffffffffffffffffffffffffffffffffffffffffffffff038211156119b0576119af611936565b5b82820190509291505056fea26469706673582212200c00c6604667fdaf5a5e0d47fe38baaa7c153d4455724cabd89bf72d0e1f92e964736f6c634300080d0033",
  "immutableReferences": {},
  "source": "// SPDX-License-Identifier: MIT\npragma solidity ^0.8.2;\n\ncontract RumERC20 {\n    mapping(address => uint256) private _balances;\n\n    mapping(address => mapping(address => uint256)) private _allowances;\n\n    mapping(string => bool) private _uuidRecord;\n\n    uint256 private _totalSupply;\n\n    string private _name;\n    string private _symbol;\n\n    constructor(\n        string memory name_,\n        string memory symbol_,\n        uint256 cap,\n        address minter\n    ) {\n        _name = name_;\n        _symbol = symbol_;\n        // send all supply to minter\n        _mint(minter, cap);\n    }\n\n    event Transfer(address indexed from, address indexed to, uint256 value);\n\n    event Approval(address indexed owner, address indexed spender, uint256 value);\n\n    function name() public view virtual returns (string memory) {\n        return _name;\n    }\n\n    function symbol() public view virtual returns (string memory) {\n        return _symbol;\n    }\n\n    function decimals() public view virtual returns (uint8) {\n        return 18;\n    }\n\n    function totalSupply() public view virtual returns (uint256) {\n        return _totalSupply;\n    }\n\n    function balanceOf(address account) public view virtual returns (uint256) {\n        return _balances[account];\n    }\n\n    function rumTransfer(address recipient, uint256 amount, string memory uuid) public virtual returns (bool) {\n        bytes memory uuidBytes = bytes(uuid);\n        require(uuidBytes.length != 0, \"RumERC20: uuid is empty\");\n        require(!_uuidRecord[uuid], \"RumERC20: this transfer has done\");\n        _transfer(_msgSender(), recipient, amount);\n        _uuidRecord[uuid] = true;\n        return true;\n    }\n\n    function rumApprove(address spender, uint256 amount, string memory uuid) public virtual returns (bool) {\n        bytes memory uuidBytes = bytes(uuid);\n        require(uuidBytes.length != 0, \"RumERC20: uuid is empty\");\n        require(!_uuidRecord[uuid], \"RumERC20: this approve has done\");\n        _approve(_msgSender(), spender, amount);\n        _uuidRecord[uuid] = true;\n        return true;\n    }\n\n    function rumTransferFrom(\n        address sender,\n        address recipient,\n        uint256 amount,\n        string memory uuid\n    ) public virtual returns (bool) {\n        bytes memory uuidBytes = bytes(uuid);\n        require(uuidBytes.length != 0, \"RumERC20: uuid is empty\");\n        require(!_uuidRecord[uuid], \"RumERC20: this transferFrom has done\");\n        _transfer(sender, recipient, amount);\n\n        uint256 currentAllowance = _allowances[sender][_msgSender()];\n        require(currentAllowance >= amount, \"RumERC20: transfer amount exceeds allowance\");\n        unchecked {\n            _approve(sender, _msgSender(), currentAllowance - amount);\n        }\n\n        _uuidRecord[uuid] = true;\n        return true;\n    }\n\n    function transfer(address recipient, uint256 amount) public virtual returns (bool) {\n        _transfer(_msgSender(), recipient, amount);\n        return true;\n    }\n\n    function allowance(address owner, address spender) public view virtual returns (uint256) {\n        return _allowances[owner][spender];\n    }\n\n    function approve(address spender, uint256 amount) public virtual returns (bool) {\n        _approve(_msgSender(), spender, amount);\n        return true;\n    }\n\n    function transferFrom(\n        address sender,\n        address recipient,\n        uint256 amount\n    ) public virtual returns (bool) {\n        _transfer(sender, recipient, amount);\n\n        uint256 currentAllowance = _allowances[sender][_msgSender()];\n        require(currentAllowance >= amount, \"RumERC20: transfer amount exceeds allowance\");\n        unchecked {\n            _approve(sender, _msgSender(), currentAllowance - amount);\n        }\n\n        return true;\n    }\n\n    function _transfer(\n        address sender,\n        address recipient,\n        uint256 amount\n    ) internal virtual {\n        require(sender != address(0), \"RumERC20: transfer from the zero address\");\n        require(recipient != address(0), \"RumERC20: transfer to the zero address\");\n\n        uint256 senderBalance = _balances[sender];\n        require(senderBalance >= amount, \"RumERC20: transfer amount exceeds balance\");\n        unchecked {\n            _balances[sender] = senderBalance - amount;\n        }\n        _balances[recipient] += amount;\n\n        emit Transfer(sender, recipient, amount);\n    }\n\n    function _mint(address account, uint256 amount) internal virtual {\n        require(account != address(0), \"RumERC20: mint to the zero address\");\n\n        _totalSupply += amount;\n        _balances[account] += amount;\n        emit Transfer(address(0), account, amount);\n    }\n\n    function _approve(\n        address owner,\n        address spender,\n        uint256 amount\n    ) internal virtual {\n        require(owner != address(0), \"RumERC20: approve from the zero address\");\n        require(spender != address(0), \"RumERC20: approve to the zero address\");\n\n        _allowances[owner][spender] = amount;\n        emit Approval(owner, spender, amount);\n    }\n\n    function _msgSender() internal view virtual returns (address) {\n        return msg.sender;\n    }\n}\n\n",
  "sourcePath": "/home/hanwei/coding/press.one/rum/rumsc/contracts/RumERC20.sol",
  "compiler": {
    "name": "solc",
    "version": "0.8.13+commit.abaa5c0e.Emscripten.clang"
  },
  "schemaVersion": "3.4.7",
  "updatedAt": "2022-04-22T06:19:34.198Z",
  "devdoc": {
    "kind": "dev",
    "methods": {},
    "version": 1
  },
  "userdoc": {
    "kind": "user",
    "methods": {},
    "version": 1
  }
}