{
    "contractName": "RumSC",
    "abi": [
        {
            "anonymous": false,
            "inputs": [
                {
                    "indexed": false,
                    "internalType": "string",
                    "name": "id",
                    "type": "string"
                },
                {
                    "indexed": false,
                    "internalType": "string",
                    "name": "user_address",
                    "type": "string"
                },
                {
                    "indexed": true,
                    "internalType": "string",
                    "name": "protocol",
                    "type": "string"
                },
                {
                    "indexed": false,
                    "internalType": "string",
                    "name": "meta",
                    "type": "string"
                },
                {
                    "indexed": false,
                    "internalType": "string",
                    "name": "data",
                    "type": "string"
                },
                {
                    "indexed": false,
                    "internalType": "string",
                    "name": "hash",
                    "type": "string"
                },
                {
                    "indexed": false,
                    "internalType": "string",
                    "name": "signature",
                    "type": "string"
                }
            ],
            "name": "NewPost",
            "type": "event"
        },
        {
            "inputs": [
                {
                    "internalType": "uint256",
                    "name": "",
                    "type": "uint256"
                }
            ],
            "name": "posts",
            "outputs": [
                {
                    "internalType": "string",
                    "name": "id",
                    "type": "string"
                },
                {
                    "internalType": "string",
                    "name": "user_address",
                    "type": "string"
                },
                {
                    "internalType": "string",
                    "name": "protocol",
                    "type": "string"
                },
                {
                    "internalType": "string",
                    "name": "meta",
                    "type": "string"
                },
                {
                    "internalType": "string",
                    "name": "data",
                    "type": "string"
                },
                {
                    "internalType": "string",
                    "name": "hash",
                    "type": "string"
                },
                {
                    "internalType": "string",
                    "name": "signature",
                    "type": "string"
                }
            ],
            "stateMutability": "view",
            "type": "function",
            "constant": true
        },
        {
            "inputs": [
                {
                    "internalType": "string",
                    "name": "id",
                    "type": "string"
                },
                {
                    "internalType": "string",
                    "name": "user_address",
                    "type": "string"
                },
                {
                    "internalType": "string",
                    "name": "protocol",
                    "type": "string"
                },
                {
                    "internalType": "string",
                    "name": "meta",
                    "type": "string"
                },
                {
                    "internalType": "string",
                    "name": "data",
                    "type": "string"
                },
                {
                    "internalType": "string",
                    "name": "hash",
                    "type": "string"
                },
                {
                    "internalType": "string",
                    "name": "signature",
                    "type": "string"
                }
            ],
            "name": "save",
            "outputs": [],
            "stateMutability": "nonpayable",
            "type": "function"
        },
        {
            "inputs": [],
            "name": "getLength",
            "outputs": [
                {
                    "internalType": "uint256",
                    "name": "",
                    "type": "uint256"
                }
            ],
            "stateMutability": "view",
            "type": "function",
            "constant": true
        }
    ],
    "bytecode": "0x608060405234801561001057600080fd5b50610ce3806100206000396000f3fe608060405234801561001057600080fd5b50600436106100415760003560e01c80630b1e7f831461004657806338600fd61461007c578063be1c766b14610098575b600080fd5b610060600480360381019061005b9190610744565b6100b6565b604051610073979695949392919061080a565b60405180910390f35b610096600480360381019061009191906109df565b6104c0565b005b6100a061064b565b6040516100ad9190610b54565b60405180910390f35b600081815481106100c657600080fd5b90600052602060002090600702016000915090508060000180546100e990610b9e565b80601f016020809104026020016040519081016040528092919081815260200182805461011590610b9e565b80156101625780601f1061013757610100808354040283529160200191610162565b820191906000526020600020905b81548152906001019060200180831161014557829003601f168201915b50505050509080600101805461017790610b9e565b80601f01602080910402602001604051908101604052809291908181526020018280546101a390610b9e565b80156101f05780601f106101c5576101008083540402835291602001916101f0565b820191906000526020600020905b8154815290600101906020018083116101d357829003601f168201915b50505050509080600201805461020590610b9e565b80601f016020809104026020016040519081016040528092919081815260200182805461023190610b9e565b801561027e5780601f106102535761010080835404028352916020019161027e565b820191906000526020600020905b81548152906001019060200180831161026157829003601f168201915b50505050509080600301805461029390610b9e565b80601f01602080910402602001604051908101604052809291908181526020018280546102bf90610b9e565b801561030c5780601f106102e15761010080835404028352916020019161030c565b820191906000526020600020905b8154815290600101906020018083116102ef57829003601f168201915b50505050509080600401805461032190610b9e565b80601f016020809104026020016040519081016040528092919081815260200182805461034d90610b9e565b801561039a5780601f1061036f5761010080835404028352916020019161039a565b820191906000526020600020905b81548152906001019060200180831161037d57829003601f168201915b5050505050908060050180546103af90610b9e565b80601f01602080910402602001604051908101604052809291908181526020018280546103db90610b9e565b80156104285780601f106103fd57610100808354040283529160200191610428565b820191906000526020600020905b81548152906001019060200180831161040b57829003601f168201915b50505050509080600601805461043d90610b9e565b80601f016020809104026020016040519081016040528092919081815260200182805461046990610b9e565b80156104b65780601f1061048b576101008083540402835291602001916104b6565b820191906000526020600020905b81548152906001019060200180831161049957829003601f168201915b5050505050905087565b60006040518060e00160405280898152602001888152602001878152602001868152602001858152602001848152602001838152509080600181540180825580915050600190039060005260206000209060070201600090919091909150600082015181600001908051906020019061053a929190610657565b506020820151816001019080519060200190610557929190610657565b506040820151816002019080519060200190610574929190610657565b506060820151816003019080519060200190610591929190610657565b5060808201518160040190805190602001906105ae929190610657565b5060a08201518160050190805190602001906105cb929190610657565b5060c08201518160060190805190602001906105e8929190610657565b505050846040516105f99190610c0b565b60405180910390207f65588b710e8dfa3c703e019f27578c480a852d865b54b8f4c68d2a21c50e196f88888787878760405161063a96959493929190610c22565b60405180910390a250505050505050565b60008080549050905090565b82805461066390610b9e565b90600052602060002090601f01602090048101928261068557600085556106cc565b82601f1061069e57805160ff19168380011785556106cc565b828001600101855582156106cc579182015b828111156106cb5782518255916020019190600101906106b0565b5b5090506106d991906106dd565b5090565b5b808211156106f65760008160009055506001016106de565b5090565b6000604051905090565b600080fd5b600080fd5b6000819050919050565b6107218161070e565b811461072c57600080fd5b50565b60008135905061073e81610718565b92915050565b60006020828403121561075a57610759610704565b5b60006107688482850161072f565b91505092915050565b600081519050919050565b600082825260208201905092915050565b60005b838110156107ab578082015181840152602081019050610790565b838111156107ba576000848401525b50505050565b6000601f19601f8301169050919050565b60006107dc82610771565b6107e6818561077c565b93506107f681856020860161078d565b6107ff816107c0565b840191505092915050565b600060e0820190508181036000830152610824818a6107d1565b9050818103602083015261083881896107d1565b9050818103604083015261084c81886107d1565b9050818103606083015261086081876107d1565b9050818103608083015261087481866107d1565b905081810360a083015261088881856107d1565b905081810360c083015261089c81846107d1565b905098975050505050505050565b600080fd5b600080fd5b7f4e487b7100000000000000000000000000000000000000000000000000000000600052604160045260246000fd5b6108ec826107c0565b810181811067ffffffffffffffff8211171561090b5761090a6108b4565b5b80604052505050565b600061091e6106fa565b905061092a82826108e3565b919050565b600067ffffffffffffffff82111561094a576109496108b4565b5b610953826107c0565b9050602081019050919050565b82818337600083830152505050565b600061098261097d8461092f565b610914565b90508281526020810184848401111561099e5761099d6108af565b5b6109a9848285610960565b509392505050565b600082601f8301126109c6576109c56108aa565b5b81356109d684826020860161096f565b91505092915050565b600080600080600080600060e0888a0312156109fe576109fd610704565b5b600088013567ffffffffffffffff811115610a1c57610a1b610709565b5b610a288a828b016109b1565b975050602088013567ffffffffffffffff811115610a4957610a48610709565b5b610a558a828b016109b1565b965050604088013567ffffffffffffffff811115610a7657610a75610709565b5b610a828a828b016109b1565b955050606088013567ffffffffffffffff811115610aa357610aa2610709565b5b610aaf8a828b016109b1565b945050608088013567ffffffffffffffff811115610ad057610acf610709565b5b610adc8a828b016109b1565b93505060a088013567ffffffffffffffff811115610afd57610afc610709565b5b610b098a828b016109b1565b92505060c088013567ffffffffffffffff811115610b2a57610b29610709565b5b610b368a828b016109b1565b91505092959891949750929550565b610b4e8161070e565b82525050565b6000602082019050610b696000830184610b45565b92915050565b7f4e487b7100000000000000000000000000000000000000000000000000000000600052602260045260246000fd5b60006002820490506001821680610bb657607f821691505b602082108103610bc957610bc8610b6f565b5b50919050565b600081905092915050565b6000610be582610771565b610bef8185610bcf565b9350610bff81856020860161078d565b80840191505092915050565b6000610c178284610bda565b915081905092915050565b600060c0820190508181036000830152610c3c81896107d1565b90508181036020830152610c5081886107d1565b90508181036040830152610c6481876107d1565b90508181036060830152610c7881866107d1565b90508181036080830152610c8c81856107d1565b905081810360a0830152610ca081846107d1565b905097965050505050505056fea26469706673582212200669513eff4986ff4b1f82261811ce74277f7eb7f0d0284c5b3e69e647780e0c64736f6c634300080d0033",
    "immutableReferences": {},
    "source": "// SPDX-License-Identifier: MIT\npragma solidity >=0.4.22 <0.9.0;\n\ncontract RumSC {\n  struct Post {\n    string id; // identity\n    string user_address; // poster_address\n    string protocol; // content_type\n    string meta; // content_meta\n    string data; // content_data\n    string hash; // content_hash\n    string signature; // content_signature\n  }\n\n  event NewPost(string id, string user_address, string indexed protocol, string meta, string data, string hash, string signature);\n\n  Post[] public posts;\n\n  function save(string memory id, string memory user_address, string memory protocol, string memory meta, string memory data, string memory hash, string memory signature) public {\n    posts.push(Post({\n      id: id,\n      user_address: user_address,\n      protocol: protocol,\n      meta: meta,\n      data: data,\n      hash: hash,\n      signature: signature\n    }));\n    emit NewPost(id, user_address, protocol, meta, data, hash, signature);\n  }\n\n  function getLength() public view returns (uint) {\n    return posts.length;\n  }\n}\n",
    "sourcePath": "/home/hanwei/coding/press.one/rum/rumsc/contracts/RumSC.sol",
    "compiler": {
        "name": "solc",
        "version": "0.8.13+commit.abaa5c0e.Emscripten.clang"
    },
    "schemaVersion": "3.4.7",
    "updatedAt": "2022-04-22T09:19:34.404Z",
    "networkType": "ethereum",
    "devdoc": {
        "kind": "dev",
        "methods": {},
        "version": 1
    },
    "userdoc": {
        "kind": "user",
        "methods": {},
        "version": 1
    }
}